:1000000036C1000051C100000C94A9094DC1000087
:100010004BC1000049C100000C94761945C1000095
:1000200043C1000041C100003FC100003DC10000CC
:100030003BC1000039C1000037C1000035C10000DC
:100040000C94A80E31C100002FC100002DC100008A
:100050002BC1000029C1000027C1000025C10000FC
:100060000C94E91C21C10000141714171417DD1695
:100070003C17491714171417DD163C172E010700FB
:1000800000000000008024040700000000000000C1
:10009000200107000000000000003004076090907D
:1000A00090909060310407206020202020203204AE
:1000B00007609010204080F0330407609010E0103B
:1000C00090603404072060A0A0F02020350407F0E1
:1000D0008080F0109060360407609080E09090601F
:1000E000370407F09020404040403804076090906B
:1000F00060909060390407609090701090603A01B1
:100100000700008000800000250407C0C0102040C8
:10011000B0302F0207000040C0800000E0040780DC
:10012000609080809060002E0107000000000000B9
:1001300080240407000000000000002001070000E8
:100140000000000000300407F09090909090F03193
:10015000040710101010101010320407F01010F0E7
:100160008080F0330407F01010F01010F034040712
:10017000909090F0101010350407F08080F010106F
:10018000F0360407F08080F09090F0370407F0100C
:100190001010101010380407F09090F09090F03983
:1001A0000407F09090F01010F03A01070000800072
:1001B000800000250407C0C0102040B0302F020787
:1001C000000040C0800000E00407806090808090C4
:1001D00060000A0BF4010B0D3E000D0E3E000E0AEE
:1001E0003E00000000000A1C007C0B0D3E00EB0BE3
:1001F0000E3E002F0C0B0000B80B111C006C0C12F3
:100200001C00C50C131C001E0D141C005B0D00000F
:1002100000000000000008000201000003040700C5
:1002200000000000000000010204081020408001CE
:10023000020408102001020408102004040404042D
:100240000404040202020202020303030303030084
:1002500000000023002600290000000000250028DF
:10026000002B0000000000240027002A00001124B9
:100270001FBECFEFD8E0DEBFCDBF12E0A0E0B1E0FF
:10028000E6E3F6E402C005900D92A63CB107D9F76B
:1002900024E0A6ECB2E001C01D92A733B207E1F75B
:1002A0000E949C0E0C941923ABCECF93DF930E9437
:1002B000440BEC018E81811113C0CFD6BE016D5E5F
:1002C0007F4F95D7882361F01F928F9387E091E04D
:1002D0009F938F930E94EC1F0F900F900F900F90A1
:1002E000DF91CF91089576D5B0C55DD696C60E94B0
:1002F000440B0C946A0ECF93DF930E94440BEC01E5
:1003000035D2BE01685F7F4F57D2882361F01F92BC
:100310008F938AE191E09F938F930E94EC1F0F903F
:100320000F900F900F90DF91CF910895CF93DF93AF
:10033000EC01C7D3C436D10510F467E021C0C6393B
:10034000D10510F466E01CC0C83CD10510F465E08E
:1003500017C0CA3FD10510F464E012C0CC3221E0CE
:10036000D20710F463E00CC0CE3521E0D20710F4C0
:1003700062E006C0C039D14010F461E001C060E025
:10038000DF91CF91B5C38DEB93E0089521E043E772
:1003900051E061E070E08DE291E00E94320A21E0DC
:1003A00047E751E061E070E086E391E00E94320AA5
:1003B00021E045E751E069E070E080E491E00E94CF
:1003C000320A21E04BE751E06EE370E089E491E00E
:1003D0000E94320A21E045E551E06EE370E082E5DB
:1003E00091E00C94320A0F931F93CF93DF938C010B
:1003F0000E94150B40E052EC61E070E00E94180B87
:100400000E94150BA5D15DD35FD353D455D451D4DD
:10041000EC0123D6BE0166D7A9D1ABD152D3EC01F2
:100420000E94440BBE010E94470BD4D46EE173E0DE
:10043000D4D4B9D566E971E0B9D50E94440BEC017A
:100440000CD6BE016D5E7F4FD2D6CE010C960E94B7
:100450002D0A8C851F928F932BE531E03F932F93CC
:100460000E94EC1FC80192DF0E94440B0F900F9076
:100470000F900F9062ED71E0DF91CF911F910F917E
:100480000C94930ECF93DF931F92CDB7DEB71F92DC
:100490006F9382E691E09F938F9369830E94EC1F94
:1004A0000E94440B0F900F900F900F90FC0126813B
:1004B0006981621791F06683611107C062ED71E096
:1004C0000F90DF91CF910C94930EFC01178261E1A4
:1004D0000F90DF91CF910C94CB0D0F90DF91CF91C6
:1004E0000895CF93DF931F92CDB7DEB769830E9443
:1004F000440BFC0187816981823009F44AC028F4E9
:100500008823F9F0813049F070C0843009F455C077
:1005100060F1853009F464C068C0208D862F99276A
:1005200087FD9095820F911D8C33910511F4108EEB
:100530005CC0892B19F48BE3808F57C0620F608FEA
:1005400054C02789862F992787FD9095820F911D8A
:100550008831910511F4178A48C0892B19F487E175
:10056000878B43C0620F678B40C02689862F9927EF
:1005700087FD9095820F911D8032910511F481E0E5
:1005800003C0019719F48FE1868B2FC0620F668B31
:100590002CC02589862F992787FD9095820F911D64
:1005A0008D30910511F481E003C0019719F48CE0BE
:1005B000858B1BC0620F658B18C083899489860F59
:1005C000911D67FD9A958436910519F4148A138A52
:1005D0000CC0009711F483E690E0948B838B05C0E8
:1005E00081E09485911180E084870F90DF91CF9115
:1005F0000895CF93DF930E94440BEC018F818530E7
:1006000038F08530C1F4CE010C96DF91CF91F5C65C
:1006100024D5BE016D5E7F4F35D5882361F01F92D2
:100620008F938DE691E09F938F930E94EC1F0F9024
:100630000F900F900F90DF91CF910895EF92FF925E
:100640001F93CF93DF931F92CDB7DEB7182F1F9262
:100650006F931F928F9321E831E03F932F9369832B
:100660000E94EC1F0E94440B7C010E94440BFC0181
:100670000F900F900F900F900F900F906981123094
:1006800089F5633029F4868181110CC061E00BC0CB
:10069000613009F04BC08681813009F047C0878105
:1006A000853051F460E08DEB93E00F90DF91CF91B6
:1006B0001F91FF90EF90E6CE8F5F8783823011F419
:1006C00062E103C0843051F463E1C7010F90DF9110
:1006D000CF911F91FF90EF900C94CB0D853031F5A9
:1006E00064E1F3CF113071F4613001F5868181301E
:1006F00089F0CAD70F90DF91CF911F91FF90EF90B3
:100700000C949A0E133091F4613081F4868181301B
:1007100069F46FEF8DEB93E0E4DE8DEB93E00F90E7
:10072000DF91CF911F91FF90EF9063CF0F90DF91FA
:10073000CF911F91FF90EF900895CF93C82F75D759
:100740006C2F9BD78C2F992787FD9095CF9108957B
:1007500060E070E08DE993E00C94A21F82E991E0E3
:100760000C94FD1F87E991E00C94FD1F8DEB93E045
:10077000089522E0FC0120830895EF92FF920F93E9
:100780001F93CF93DF938C01C1E1D7E2E62EF12CCA
:10079000F80180810E9446108E159F0529F021974F
:1007A0002097B1F780E001C081E0DF91CF911F91E8
:1007B0000F91FF90EF9008952F923F924F925F928A
:1007C0006F927F928F929F92AF92BF92CF92DF9261
:1007D000EF92FF920F931F93CF93DF9300D000D03F
:1007E0001F92CDB7DEB78C017B0161E0FC018081F7
:1007F0000E94D80F60E0F80180810E94111062E130
:1008000070E080E090E00E94150F61E0F8018081C7
:100810000E94111088E290E00E944C0F60E0F80105
:1008200080810E94D80F60E0C801A7DF811102C05B
:1008300082E080C061E0C801A0DF8823C9F360E0E6
:10084000C8019BDF8823A1F3F70110821182128275
:100850001382CE0101965C0185E0F50111928A9523
:10086000E9F748E2C42ED12C312C57E0252E8824FC
:100870008394912C61E0C80180DF8823C9F20E9433
:10088000F20E2B013C0160E0C80177DF882381F282
:100890000E94F20E6419750986099709693271057B
:1008A0008105910560F0F501E30DF11D2081C40182
:1008B000022C01C0880F0A94EAF7282B208321100C
:1008C00004C0339437E0232E01C02A94F1E0CF1AFC
:1008D000D108C114D10471F629815A818B814C81D0
:1008E000952F920F980F940F3D81391322C051110B
:1008F0000FC041110DC09AE0299F90011124F7010A
:1009000033832283FAE08F9FC0011124F7010DC0C9
:1009100030E0322F2227250F311DF7013383228348
:1009200090E0982F8827840F911D9183808380E029
:1009300001C083E00F900F900F900F900F90DF9108
:10094000CF911F910F91FF90EF90DF90CF90BF90CC
:10095000AF909F908F907F906F905F904F903F905F
:100960002F900895673130F5483020F5362F3695B1
:100970003695369550E078E0379F60191124E1E014
:10098000F0E0062E01C0EE0F0A94EAF77E2F709574
:10099000FA01EE0FFF1FE40FF51FE30FF11DE80F43
:1009A000F91F80817823062E01C0220F0A94EAF7EE
:1009B000722B708308956731E8F44830D8F4262FFD
:1009C00026952695269550E0FA01EE0FFF1FE40FBD
:1009D000F51FE20FF11DE80FF91F808190E038E06C
:1009E000239F6019112402C0959587956A95E2F7B7
:1009F0008170089580E008955F926F927F928F9248
:100A00009F92AF92BF92CF92DF92EF92FF920F939D
:100A10001F93CF93DF93CDB7DEB760970FB6F894EF
:100A2000DEBF0FBECDBF782E892EA62ECE01019639
:100A30007C0180E1F70111928A95E9F78BE0689FCC
:100A4000502C11246701B12C6B2C650C00E010E0D8
:100A5000912C402F662D872D982DADDF282F002E4D
:100A600001C0220F0A94EAF7922A0F5F1F4F073046
:100A7000110579F7F60191926F01B394FBE0BF1273
:100A8000E3CF872D982D8A0D911D8A0D911D40E190
:100A9000B7014596B0D560960FB6F894DEBF0FBE8D
:100AA000CDBFDF91CF911F910F91FF90EF90DF901D
:100AB000CF90BF90AF909F908F907F906F905F90FE
:100AC00008958EEB93E00895CF93DF93EC0144E01B
:100AD00065E0459678D546E067E0CE01479673D548
:100AE00085E1FE0111928A95E9F7DF91CF91089592
:100AF0001F93CF93DF93EC01162F459679D5612F85
:100B0000CE014796DF91CF911F9172C525E1FC017F
:100B100011922A95E9F708953F924F925F926F9252
:100B20007F928F929F92AF92BF92CF92DF92EF927D
:100B3000FF920F931F93CF93DF93CDB7DEB72A9722
:100B40000FB6F894DEBF0FBECDBF5C01942E822E8F
:100B5000C80126E1241710F4892D4FC027E028157D
:100B6000D8F3AE014F5F5F4F93D08130A9F3512C82
:100B700017E0E12EF12C6701C818D10806E110E05A
:100B800009191109852D90E0EB81F0E0B601EC1513
:100B9000FD050CF4BF018617970764F5E4E0F0E06B
:100BA000EC0FFD1FE80FF91F6080412C712C352CD4
:100BB000380C242D30E04A8150E0C801401751071D
:100BC0000CF4CA01281739079CF4C701821B930B48
:100BD0009C01C30102C0959587952A95E2F79C0177
:100BE0002170642D690D432DC501BCDE4394E1CF16
:100BF0005394C8CF8A818F5F890D2A960FB6F894D7
:100C0000DEBF0FBECDBFDF91CF911F910F91FF903F
:100C1000EF90DF90CF90BF90AF909F908F907F909C
:100C20006F905F904F903F900895BF92CF92DF9268
:100C3000EF92FF920F931F93CF93DF937C01842F4A
:100C4000B22E6801EB016991662331F086012B2DEC
:100C5000482FC70161DFF7CFDF91CF911F910F912F
:100C6000FF90EF90DF90CF90BF900895CF93DF93E8
:100C7000EC0160E0C1DE61E0CE01DF91CF91BCCE3E
:100C8000811103C087E291E008958CE790E0089518
:100C9000FC01CA012491261307C04AE050E0BF01BD
:100CA0000E94821F80E008953A962111F3CF81E0DF
:100CB000089587ED93E00895FC0110820895EF9266
:100CC000FF920F93CF93DF9300D0CDB7DEB77C01B7
:100CD00049836A830E940F1C91E0F701908301E031
:100CE00021E041E0BE016F5F7F4F8A810E94821C3C
:100CF000F70110828A830E942D1C91E08A81811164
:100D000001C090E0892F81950F900F90DF91CF91D6
:100D10000F91FF90EF900895CF92DF92EF92FF92A4
:100D20000F93CF93DF9300D0CDB7DEB76C017A017C
:100D300091E0F601908329836A830E940F1C01E0F1
:100D400021E04981B7018A810E94821CF60110824C
:100D50008A830E942D1C91E08A81811101C090E05C
:100D6000892F81950F900F90DF91CF910F91FF9078
:100D7000EF90DF90CF900895CF92DF92FF920F9384
:100D80001F93CF93DF931F92CDB7DEB76C018A011B
:100D9000F22E91E0F601908369830E940F1C21E0FE
:100DA0004F2DB80189810E943A1CF6011082898377
:100DB0000E942D1C91E089818F1101C090E0892F44
:100DC00081950F90DF91CF911F910F91FF90DF9050
:100DD000CF90089588ED93E00895FC0188E0DF014D
:100DE0001D928A95E9F780E1808377836683089571
:100DF000FC01138215821482118212820895262F1B
:100E0000DC011696ED91FC911797309719F0642F3D
:100E1000822F099408950097B1F09C01205E314023
:100E20002134310560F024553F4F2134310548F01D
:100E30008F5D91098134910530F483E0089581E05C
:100E4000089582E0089580E008951F93CF93DF9383
:100E5000EC0188810E94920FDEDF182F209711F598
:100E600080910100843028F48230C0F4813099F000
:100E70004DC0843009F04AC08091050091E0980F80
:100E800090930500863008F441C042E06091020072
:100E900080E090E0B4DF80E090E037C084E08093B1
:100EA000010034C08981813051F028F08230B1F0E6
:100EB000833021F12BC081E089831A8327C08A8186
:100EC000181711F01C826BC08B8191E0980F9B83E7
:100ED0008330E0F082E0898341E00CC06A81161320
:100EE00043C08C8191E0980F9C83853678F083E035
:100EF000898343E0612FCE0182DF08C06A81161723
:100F000029F042E0CE017BDFCE0172DF89818230A1
:100F100031F128F4882341F0813069F040C08330FA
:100F2000F1F0843031F13BC01123C9F181E08983B4
:100F30001A838B8334C01123D1F06A81161314C035
:100F40008B8191E0980F9B83833048F182E0898305
:100F500041E0612FCE01DF91CF911F9150CF2097BB
:100F600091F06A811617D9F042E0CE0148DFCE0138
:100F700012C0CD2BA1F48091050091E0980F9093C1
:100F80000500863060F042E06091020080E090E071
:100F900036DF80E090E0DF91CF911F9129CFDF9184
:100FA000CF911F91089580EE93E00895FC0181E1B7
:100FB00080837483638312821182158A359680E15F
:100FC000DF011D928A95E9F70895FC0180E090E029
:100FD00040E050E0BA01DF01A80FB91F15962D912E
:100FE0003C911697420F531F611D711D029680316F
:100FF000910589F7DB01CA0123E0B695A79597957E
:1010000087952A95D1F792838183158A0380F4818D
:10101000E02D309709F0099408951F93CF93DF9343
:10102000EC011D8981E0810F8D8B88817BD7FE01CA
:10103000E10FF11DE10FF11D968385838D898830C5
:1010400029F4CE01DF91CF911F91BFCFDF91CF91D6
:101050001F91089598D9C7C9089586EF93E0089520
:10106000982F92959F708F702AE0929F800D112487
:1010700008956AE00E94131E20E1829F900D1124C2
:10108000892F0895EF92FF920F931F93CF93DF93D1
:10109000CDB7DEB728970FB6F894DEBF0FBECDBF31
:1010A0007C018B011982FB018681E3DF8A83F801D1
:1010B0008581DFDF8B83F8018781882319F08481A4
:1010C000D8DF0BC0F8018481D4DF982F90649C8313
:1010D000F8019085992311F080668C83F801818551
:1010E000C8DF8D83F8018381C4DF8E83F80182819C
:1010F000C0DF8F83F8018081BCDF888728E0AE01E4
:101100004F5F5F4FF70160818181928105DE182F6B
:10111000882361F01F928F932CE931E03F932F9346
:101120000E94EC1F0F900F900F900F90812F289628
:101130000FB6F894DEBF0FBECDBFDF91CF911F91E8
:101140000F91FF90EF900895DC01FB0184811396CD
:101150008C931397968115969C9315979581149669
:101160009C9314979781911106C09085992319F04B
:10117000845F13968C930895FF920F931F93CF93E0
:10118000DF93EC018A01462F688189819A8197DD7E
:10119000F82E882371F01F928F9326EB31E03F9356
:1011A0002F930E94EC1F0F900F900F900F908F2D98
:1011B00018C027E0A801688189819A81DDDDC82FE8
:1011C000882371F01F928F932AED31E03F932F9384
:1011D0000E94EC1F0F900F900F900F908C2F01C06A
:1011E00080E0DF91CF911F910F91FF9008950F93B1
:1011F0001F93CF93DF93CDB7DEB727970FB6F89441
:10120000DEBF0FBECDBF8B0127E0AE014F5F5F4F4A
:1012100060E0B2DF811134C0898122DFF80186836A
:101220008A811EDFF80185838B81282F22952695E0
:101230002695237091E009F090E0F80197839923B7
:1012400011F08F7306C091E085FF90E0F801908760
:101250008F7106DFF80184838C8102DFF8018187BA
:101260008D81FEDEF80183838E818F71F9DEF801B6
:1012700082838F81F5DE90E0F8019183808380E0A6
:1012800027960FB6F894DEBF0FBECDBFDF91CF918A
:101290001F910F9108951F93CF93DF9300D0CDB787
:1012A000DEB769834A8322E0AE014F5F5F4FFC01E6
:1012B00060818181928130DD182F882361F01F9237
:1012C0008F9326EB31E03F932F930E94EC1F0F90FA
:1012D0000F900F900F90812F0F900F90DF91CF9173
:1012E0001F9108950F931F93CF93DF93CDB7DEB770
:1012F0002C970FB6F894DEBF0FBECDBF8C0188E6E9
:10130000F80180837283618362E083E051D68CE0D0
:101310008093690082E08DBB40E06EE0C801BBDFD6
:1013200040E06FE0C801B7DFBE016F5F7F4FC801CB
:101330005EDFBE016F5F7F4FC80106DF2C960FB6E0
:10134000F894DEBF0FBECDBFDF91CF911F910F91FB
:1013500008951F920F920FB60F9211248F938091D0
:10136000FB038B3320F48F5F8093FB0316C0109236
:10137000FB038091FA038B3320F48F5F8093FA0391
:101380000CC01092FA038091F903873120F48F5F2B
:101390008093F90302C01092F9038F910F900FBE52
:1013A0000F901F901895CF92DF92FF920F931F938B
:1013B000CF93DF931F92CDB7DEB7F894F62E8C0152
:1013C0006B018C2D8F19841768F4F999FECFF60103
:1013D00061916F01C80149830E9414220F5F1F4F62
:1013E0004981EFCF789480E00F90DF91CF911F91EA
:1013F0000F91FF90DF90CF90089547E0BC0180E00F
:1014000090E0D1CFCF92DF92FF920F931F93CF93B3
:10141000DF931F92CDB7DEB7F894F82E8B016C01E5
:101420008C2D8F19841770F4F999FECFC60149836A
:101430000E940C22F80181938F01FFEFCF1ADF0A7F
:101440004981EECF789480E00F90DF91CF911F918A
:101450000F91FF90DF90CF90089547E0BC0180E0AE
:1014600090E0D0CF0F931F93CF93DF938A01422F49
:1014700020E030E00E949E15EC01BCD700E010E0B7
:1014800020E030E0AC0161E0CE010E94D315CE0136
:10149000DF91CF911F910F910895CF93DF93EC01CE
:1014A00060E08981BED585E090E0F6D460E0888177
:1014B000DF91CF91B6C5CF93DF93EC0160E08981D6
:1014C000B0D585E090E0E8D461E08881AAD585E0D8
:1014D00090E0E2D461E08981DF91CF91A2C5EF92E3
:1014E000FF920F931F93CF93DF938C01C0E0D0E066
:1014F000E62EF12CB7010C2E02C0759567950A9463
:10150000E2F76170F80181818CD561E0F80180819A
:1015100088D585E090E0C0D460E0F801808181D575
:1015200085E090E0B9D42196C830D10519F7DF9154
:10153000CF911F910F91FF90EF9008950F931F93FC
:10154000CF93DF931F92CDB7DEB78C016983A5DF00
:101550006981C801C4DFC8010F90DF91CF911F914D
:101560000F91A9CFCF92DF92EF92FF920F931F932B
:10157000CF93DF9300D01F92CDB7DEB78C01F22E50
:101580004A835B83698389DF6981C801A8DF4A8157
:10159000E42EC42E5B81D52E8C2D8E198F1530F440
:1015A000F60161916F01C8019ADFF6CFC8010F9073
:1015B0000F900F90DF91CF911F910F91FF90EF90BF
:1015C000DF90CF9078CFCF93DF93FC01C62FD42F3D
:1015D0006083418361E08C2FEBD461E08D2FE8D4F0
:1015E00061E08C2F1ED561E08D2FDF91CF9119C561
:1015F00067706868A3CFEF92FF920F931F93CF930A
:10160000DF931F92CDB7DEB77C018B0160E4498385
:1016100095DF2981A80160ECC7010F90DF91CF9180
:101620001F910F91FF90EF909DCF8CEF93E0089565
:101630009A01AB0160E079E08DE390E00E94331EF7
:1016400021503109410951095695479537952795FC
:1016500082E08093C000832F99278093C500209358
:10166000C40086E08093C200E1ECF0E080818061FC
:10167000808380818860808308958091C00085FF89
:10168000FCCF6093C600089580E094E00895FC01CB
:101690008DE2DF011D928A95E9F77183608386EE02
:1016A00091E0938382830895EF92FF920F931F93AB
:1016B000CF93DF9300D0CDB7DEB77C01FC018485EA
:1016C00069837A83DDDA8C01F701808191811EDAEA
:1016D00020E040E069817A81F70180819181A5DA7B
:1016E000F701808191810F900F90DF91CF911F9131
:1016F0000F91FF90EF90BACAEF92FF920F931F9352
:10170000CF93DF9300D000D000D0CDB7DEB78C01EF
:10171000FC0180A180FF02C080E201C08AE3F801E1
:10172000908D1F929F931F928F9387891F928F9303
:1017300089EF91E09F938F93CE0101967C01FF92F8
:101740008F930E942A20B701C801AEDF0FB6F8942C
:10175000DEBF0FBECDBF26960FB6F894DEBF0FBE1C
:10176000CDBFDF91CF911F910F91FF90EF90089522
:10177000EF92FF920F931F93CF93DF9300D000D08F
:1017800000D0CDB7DEB78C01FC0186891F928F9304
:1017900085891F928F9384E092E09F938F93CE016F
:1017A00001967C01FF928F930E942A20B701C80105
:1017B0007BDF0FB6F894DEBF0FBECDBF26960FB607
:1017C000F894DEBF0FBECDBFDF91CF911F910F9177
:1017D000FF90EF900895EF92FF920F931F93CF9396
:1017E000DF9300D000D000D0CDB7DEB77C01FC0184
:1017F00020859185822F6AE070E00E941F1EFAE02A
:101800006F9F201911241F922F9377277F936F9337
:101810008EE092E09F938F938E010F5F1F4F1F9377
:101820000F930E942A20F80101900020E9F73197D8
:1018300080EE8083B801C70137DF0FB6F894DEBFB2
:101840000FBECDBF26960FB6F894DEBF0FBECDBF3C
:10185000DF91CF911F910F91FF90EF900895EF923C
:10186000FF920F931F93CF93DF9300D000D000D04F
:10187000CDB7DEB78C01FC0122859385822F6AE00B
:1018800070E00E941F1EFAE06F9F201911241F9222
:101890002F9377277F936F9389E192E09F938F93A4
:1018A000CE0101967C01FF928F930E942A20B701FE
:1018B000C801FADE0FB6F894DEBF0FBECDBF269684
:1018C0000FB6F894DEBF0FBECDBFDF91CF911F9151
:1018D0000F91FF90EF900895EF92FF920F931F9357
:1018E000CF93DF9300D000D000D0CDB7DEB78C010E
:1018F000FC0180A1817097819E012F5F3F4F79018C
:10190000911108C08823E9F0808D1F928F9386E2A1
:1019100092E00AC09130A9F4882399F0F8018789F0
:101920001F928F938EE292E09F938F93FF92EF929C
:101930000E942A200F900F900F900F900F900F9001
:1019400014C0F801808D1F928F9387891F928F9307
:1019500086E392E09F938F93FF92EF920E942A205A
:101960000FB6F894DEBF0FBECDBFB701C8019CDE35
:1019700026960FB6F894DEBF0FBECDBFDF91CF9194
:101980001F910F91FF90EF900895EF92FF920F93A8
:101990001F93CF93DF9300D000D000D0CDB7DEB738
:1019A0008C01FC0180A1817097819E012F5F3F4FC8
:1019B0007901923041F48823E9F086891F928F9350
:1019C00080E492E00AC09330A9F4882399F0F801EA
:1019D00085891F928F9388E492E09F938F93FF9263
:1019E000EF920E942A200F900F900F900F900F906F
:1019F0000F9014C0F80186891F928F9385891F92DA
:101A00008F9384E092E09F938F93FF92EF920E94D6
:101A10002A200FB6F894DEBF0FBECDBFB701C801B4
:101A200043DE26960FB6F894DEBF0FBECDBFDF9122
:101A3000CF911F910F91FF90EF900895EF92FF9239
:101A40000F931F93CF93DF9300D000D000D0CDB77A
:101A5000DEB78C01FC0180A19E012F5F3F4F790111
:101A600080FF06C060E572E0C9010E949B1F13C0A1
:101A7000F80184898F9383898F9385E592E09F9302
:101A80008F93FF922F930E942A200F900F900F9018
:101A90000F900F900F90B701C80106DE26960FB683
:101AA000F894DEBF0FBECDBFDF91CF911F910F9194
:101AB000FF90EF9008950F931F93CF93DF9300D083
:101AC00000D000D0CDB7DEB78C016CE572E0CE015E
:101AD00001960E949B1FBE016F5F7F4FC801E4DD2E
:101AE00026960FB6F894DEBF0FBECDBFDF91CF9123
:101AF0001F910F910895CF93DF93EC01DC01939632
:101B000085E0FB0101900D928A95E1F7DB011396C8
:101B1000ED91FC911497CE0109951AA219A21F8E7E
:101B200018A2DF91CF9108959B01FC01648175811A
:101B300044E050E0C9010E94821F80E008959A01AC
:101B4000DC011496ED91FC9115978491861308C0E1
:101B500044E050E0BF01C9010E94821F80E0089567
:101B600034968111F2CF83E008959A01DC01129638
:101B7000ED91FC9113978491861308C045E050E0E5
:101B8000BF01C9010E94821F80E00895359681112E
:101B9000F2CF83E00895FF920F931F93CF93DF93CB
:101BA00000D000D01F92CDB7DEB78C01F62E1F9269
:101BB0006F9382E692E09F938F930E94EC1FAE0199
:101BC0004F5F5F4F6F2DC801D0DF0F900F900F90C8
:101BD0000F90882389F01F928F931F92FF9280E7C6
:101BE00092E09F938F930E94EC1F0F900F900F90A5
:101BF0000F900F900F9007C0F80114A6BE016F5F01
:101C00007F4FC80178DF0F900F900F900F900F90CB
:101C1000DF91CF911F910F91FF9008950F931F9324
:101C2000CF93DF93CDB7DEB729970FB6F894DEBF19
:101C30000FBECDBF8C01662329F0BE016A5F7F4FC6
:101C400073DF06C0AE014A5F5F4FFC0161A577DF1D
:101C5000882369F01F928F9382E992E09F938F937C
:101C60000E94EC1F0F900F900F900F9028C0AE01B4
:101C70004F5F5F4F6E81C80178DF882391F01F921C
:101C80008F938E811F928F9380E792E09F938F9323
:101C90000E94EC1F0F900F900F900F900F900F90DD
:101CA0000EC04E815F8168857985F80140A751A7F4
:101CB00062A773A7BE016F5F7F4FC8011CDF299623
:101CC0000FB6F894DEBF0FBECDBFDF91CF911F914D
:101CD0000F910895CF93DF93EC012F8D2F5F2F8FFE
:101CE00030E08CA19DA12817390740F0EEA1FFA19B
:101CF000CE0109951F8E88A18F5F88A38CA58130A6
:101D000079F489A19AA101969AA389A32AA53BA552
:101D10008217930728F060E0CE01DF91CF917ECF4C
:101D2000DF91CF910895FC017583648321E024A79E
:101D300061E074CF60E072CFBAD00E9455178AD9A3
:101D4000C0E0D0E089D92097E9F30E940000FACFE3
:101D50001F920F920FB60F9211242F933F938F93E0
:101D60009F93AF93BF938091C7029091C802A091B7
:101D7000C902B091CA023091C60223E0230F2D3769
:101D800020F40196A11DB11D05C026E8230F02967F
:101D9000A11DB11D2093C6028093C7029093C80273
:101DA000A093C902B093CA028091CB029091CC0259
:101DB000A091CD02B091CE020196A11DB11D8093DC
:101DC000CB029093CC02A093CD02B093CE02BF91F0
:101DD000AF919F918F913F912F910F900FBE0F90D8
:101DE0001F9018953FB7F8948091CB029091CC0248
:101DF000A091CD02B091CE0226B5A89B05C02F3F81
:101E000019F00196A11DB11D3FBF6627782F892FBC
:101E10009A2F620F711D811D911D42E0660F771F81
:101E2000881F991F4A95D1F708958F929F92AF927C
:101E3000BF92CF92DF92EF92FF926B017C01D2DFD3
:101E40004B015C01C114D104E104F104E1F046D17D
:101E5000C9DF681979098A099B09683E73408105C1
:101E6000910580F321E0C21AD108E108F10888EE5B
:101E7000880E83E0981EA11CB11CC114D104E1049A
:101E8000F10431F7DFCFFF90EF90DF90CF90BF905C
:101E9000AF909F908F9008958230910538F0880F11
:101EA000991F880F991F05970197F1F70895789466
:101EB00084B5826084BD84B5816084BD85B582604F
:101EC00085BD85B5816085BDEEE6F0E080818160ED
:101ED0008083E1E8F0E010828081826080838081ED
:101EE00081608083E0E8F0E0808181608083E1EBC5
:101EF000F0E0808184608083E0EBF0E080818160AD
:101F00008083EAE7F0E08081846080838081826062
:101F1000808380818160808380818068808310924B
:101F2000C10008958E3008F08E5087702091060110
:101F300090E4299F90011124822B80937C00809152
:101F40007A00806480937A0080917A0086FDFCCFCD
:101F5000809178002091790090E0922B0895833051
:101F600081F028F4813099F08230A1F00895873013
:101F7000A9F08830B9F08430D1F4809180008F7D51
:101F800003C0809180008F7780938000089584B58E
:101F90008F7702C084B58F7D84BD08958091B00095
:101FA0008F7703C08091B0008F7D8093B00008953B
:101FB000CF93DF9390E0FC01E95DFD4F2491FC019C
:101FC000E55CFD4F8491882349F190E0880F991FCB
:101FD000FC01ED59FD4FA591B491875A9D4FFC012D
:101FE000C591D4919FB7611108C0F8948C91209548
:101FF00082238C93888182230AC0623051F4F89442
:102000008C91322F309583238C938881822B888307
:1020100004C0F8948C91822B8C939FBFDF91CF9159
:1020200008950F931F93CF93DF931F92CDB7DEB721
:10203000282F30E0F901ED5EFD4F8491F901E95D53
:10204000FD4F1491F901E55CFD4F04910023C1F0AF
:10205000882319F0698383DF6981E02FF0E0EE0FB8
:10206000FF1FE75AFD4FA591B4919FB7F8948C914B
:10207000611103C01095812301C0812B8C939FBFF8
:102080000F90DF91CF911F910F910895CF93DF9320
:10209000282F30E0F901ED5EFD4F8491F901E95DF3
:1020A000FD4FD491F901E55CFD4FC491CC2389F03B
:1020B000811155DFEC2FF0E0EE0FFF1FE15BFD4FCC
:1020C000A591B4912C912D2381E090E021F480E042
:1020D00002C080E090E0DF91CF9108950895E091F3
:1020E000F902F091FA028081811103C08FEF9FEF16
:1020F0000CC0E091F902F091FA020580F681E02D22
:102100000680F781E02D828193819093D1028093A4
:10211000D0020895CF93DF93EC01E0913103F09169
:102120003203938382838091D8029091D902609187
:10213000310370913203C817D90748F48091F70230
:102140009091F8026E5F7F4FDF91CF911CC7809115
:10215000F9029091FA026E5F7F4F15D78091D002FD
:102160009091D102C817D90720F4D093D102C0931F
:10217000D002DF91CF9108953F924F925F926F927C
:102180007F928F929F92AF92BF92CF92DF92EF9207
:10219000FF920F931F93CF93DF934C01162F372E8F
:1021A0005A013901C114D10431F4CA0184D66C0139
:1021B000009709F4CCC089E290E07DD6EC0100974D
:1021C000A1F0D88ECF8AA50165EA70E0C6010E9411
:1021D000941F21E0A21AB1084F88588C4A0C5B1C4E
:1021E000E12FF32D80E090E007C0C60182D6AFC09A
:1021F00001968830910561F0BF0141919E01280F41
:10220000391FD90159964C93DB012C912111F0CF44
:1022100018A2102F043008F013E01E8B19A31AA285
:102220006E01B2E0CB0ED11CC60188D6CE010C9651
:1022300085D6D987C88784E090E0811B91099D8766
:102240008C87DB8BCA8B1BA21CA21DA21EA218A608
:102250001FA2A301B401C201F1D699838883E114BE
:10226000F10419F0F701D183C0830FB6F8940F92EF
:102270008091DA028F5F8093DA028091310390912E
:102280003203892B89F5D0933203C09331038091B7
:10229000DA02813009F037C08DE093E041D686E163
:1022A00093E03ED68FE193E03BD688E293E038D6C8
:1022B00084E093E035D68BEF92E032D68EEE92E05A
:1022C0002FD685EE92E02CD68BED92E029D684E0D5
:1022D00093E09093FA028093F9028BEF92E090934F
:1022E000F8028093F7020FC08091D60281110BC0D3
:1022F000E0913103F09132038689081720F0D093E2
:102300003203C09331038091D2028F5F8093D20257
:102310008E899091D702981710F48093D702F9E034
:102320008F9FC0011124B601835F9C4F0BD60F9085
:102330000FBE8091D602882341F0E0913103F091E5
:1023400032038689801708F41ED781E001C08FEF21
:10235000DF91CF911F910F91FF90EF90DF90CF9081
:10236000BF90AF909F908F907F906F905F904F90B5
:102370003F900895AF92BF92CF92DF92EF92FF927B
:102380000F93A12CB12CC12CD12CE12CF12C00E00D
:1023900020E030E045E550E069EB72E08BE193E14D
:1023A000EBDE8130C9F4A2D38130B1F4F8948FEF21
:1023B0009FEF9093D1028093D00281E08093D60268
:1023C0001092D9021092D8020F91FF90EF90DF90F7
:1023D000CF90BF90AF909EC60F91FF90EF90DF908F
:1023E000CF90BF90AF9008958091CF028F5F809380
:1023F000CF0208950FB6F8940F928091D802909171
:10240000D9020F900FBE0895CF92DF92EF92FF9204
:102410000F931F93CF93DF938091CF0281118AC0D6
:102420008091D8029091D90201969093D90280931D
:10243000D8020091D8021091D90201151105B1F40A
:102440008091F9029091FA022091F7023091F802FE
:102450003093FA022093F9029093F8028093F702E6
:102460008091D3028F5F8093D30239DE8091D002B6
:102470009091D102D12C0817190708F44AC089E0BD
:10248000C82EE091F902F091FA028081811107C013
:102490008FEF9FEF9093D1028093D0023AC0E091EA
:1024A000F902F091FA020580F681E02DC681D7810C
:1024B0002A813B810217130728F43093D10220931D
:1024C000D00227C07E0182E0E80EF11CC70193D53F
:1024D0002C893D89232B19F0CE010C968CD52E89A1
:1024E0008091D702821710F42093D702C29EC001B8
:1024F0001124B701835F9C4F25D5E0913103F09102
:1025000032039E898689981708F4BBCFDD24D394C3
:10251000B8CFE0913103F0913203E68989E0E89F7A
:10252000F0011124E35FFC4F8081823048F0DD240C
:10253000D39406C08091D5028F5F8093D502D12CB1
:102540008091D402882311F0DD24D3948D2DDF9166
:10255000CF911F910F91FF90EF90DF90CF90089552
:10256000EF92FF920F931F93CF93DF930FB6F894E0
:102570000F928091CF0281508093CF028091CF0241
:10258000882311F080E04EC08091DA028823D1F3D5
:1025900099E0F92EEE24E3948091EE02882339F13C
:1025A000E091F302F091F402C681D781CE010C963E
:1025B00022D58E010E5F1F4FC8011DD58E899091C7
:1025C000D702981710F48093D702F89EC001112407
:1025D000B801835F9C4FB6D4E0913103F091320390
:1025E0009E8986899817C0F2E092D402D5CF809157
:1025F000D502811108C08091D402813009F0C2CF88
:10260000C2D581E00FC0C1E08091D502882399F343
:10261000FBDE8111C093D4028091D502815080935A
:10262000D502F2CF0F900FBEDF91CF911F910F9186
:10263000FF90EF9008958091E402882321F1D4DE89
:10264000C091E5028DDFCC23B1F30FB6F8940F9261
:10265000E091EA02F091EB02C681D781CE010296A9
:10266000CAD48091DA0281508093DA028091E40228
:1026700081508093E4020F900FBE8F89988D39D4DA
:10268000CE0137D4D8CF80910D03823008F07BD5AE
:1026900003D4D1CF8091CF02882321F081E08093B1
:1026A000D40208951092D402A0913103B091320364
:1026B000E0913103F09132032D913C918789908D07
:1026C0008217930760F0609131037091320380911B
:1026D000310390913203675E7F4F0E94B20399E00D
:1026E000E091D7029E9FF0011124E35FFC4F8081AF
:1026F000811106C08091D70281508093D702F0CF1C
:10270000E091D70289E0E89FF0011124E35FFC4FDC
:10271000A181B28112960D90BC91A02DB283A183AC
:10272000CF010396A817B90731F412968D919C91A9
:102730001397928381830180F281E02D86819781B6
:1027400090933203809331030895CF93DF93EB018D
:102750006091310370913203645F7F4F14D4809194
:10276000310390913203029646D4CF3F8FEFD807C2
:1027700059F460913103709132036E5F7F4F8BED9E
:1027800092E0DF91CF91DEC38091D8029091D9027F
:102790008C0F9D1FDF91CF91BDCC0F931F93CF93D3
:1027A000DF931F92CDB7DEB78B016091310370913B
:1027B0003203645F7F4F4983C5D380913103909189
:1027C0003203029618D44981413071F4609131038B
:1027D000709132036E5F7F4F8BED92E00F90DF912F
:1027E000CF911F910F91AEC38091D8029091D902E1
:1027F000800F911F0F90DF91CF911F910F918ACC85
:102800000F931F93CF93DF93DC011596ED91FC910D
:102810001697C681D7818E01045F1F4FC801EBD385
:102820008091CF02811113C00A501109C801E3D36E
:102830008E899091D702981710F48093D702B9E04F
:102840008B9FC0011124B801835F9C4F03C0B80166
:102850008EEE92E077D3E0913103F09132039E89BE
:102860008689891720F481E08093D40201C080E03A
:10287000DF91CF911F910F9108952091D302FC0118
:1028800020832091D8023091D90232832183089588
:10289000CF93DF930FB6F8940F92E091D802F091A6
:1028A000D902DB014D915C914F3FBFEF5B07C9F04F
:1028B000B091D302EC01A88129813A81BA1719F0AD
:1028C000E217F30780F4DF01A21BB30BA417B507CF
:1028D00050F42E1B3F0B240F351FFB013183208347
:1028E000CCDF80E001C081E00F900FBEDF91CF917F
:1028F000089581E08093D40208958091D6028823C0
:1029000031F08091CF02811104C082E0089581E00E
:10291000089580E008950F931F93CF93DF93EC0108
:10292000009709F446C08E89E0913103F09132039B
:102930009689891708F03DC02C853D8537FD0BC071
:10294000E0913103F0913203968924E030E0291BB5
:1029500031093D872C8729E0829FC0011124835FC4
:102960009C4F2A853B8528173907E9F48E010E5FB5
:102970001F4FC80140D3E0913103F09132038689A3
:102980008E8B9091D702981710F48093D70229E08C
:10299000829FC0011124B801835F9C4FDF91CF91CA
:1029A0001F910F91CFC2E0913103F09132038689DC
:1029B0008E8BDF91CF911F910F9108950F931F93ED
:1029C000CF93DF93EC01009711F480E029C08AA136
:1029D00081508AA32E8999A12917B9F38111F5CFC6
:1029E0008E010E5F1F4FC80106D389A18E8B482F21
:1029F00050E024E030E0241B350B3D872C8790917C
:102A0000D702981710F48093D70229E0249FC001C1
:102A1000259F900D1124B801835F9C4F93D281E0D4
:102A2000DF91CF911F910F91089580913103909183
:102A30003203892B39F0E0913103F091320382A106
:102A40008F5F82A3809131039091320308950FB676
:102A5000F8940F928091350390913603892BD1F42D
:102A600084E493E05DD28BE393E05AD284E493E074
:102A700090933A03809339038BE393E09093380368
:102A80008093370340E065E084E10ED590933603F0
:102A9000809335030F900FBE0895FC01738362830A
:102AA000918780874617570778F0421B530B848520
:102AB000958548175907C0F4BF016E5F7F4F80911D
:102AC0003703909138030DC04217530718F462176B
:102AD000730750F4BF016E5F7F4F8091390390916F
:102AE0003A0351D280E0089581E00895AF92BF92F9
:102AF000CF92DF92EF92FF920F93A9DF809135037F
:102B000090913603892B89F0A12CB12CC12CD12CAA
:102B1000E12CF12C03E020E030E040E051E06EEBEE
:102B200072E08DE596E128DB01C080E00F91FF9017
:102B3000EF90DF90CF90BF90AF9008959F92AF92AB
:102B4000BF92CF92DF92EF92FF920F931F93CF939A
:102B5000DF935C017B01942E690161157105A1F081
:102B600083E190E0A8D1EC01009781F070DFB98299
:102B7000A882FD86EC869E86D88ACF861A8B098B22
:102B8000CE010296DBD102C0C0E0D0E0CE01DF91E1
:102B9000CF911F910F91FF90EF90DF90CF90BF905A
:102BA000AF909F9008950F931F93CF93DF9300D022
:102BB00000D01F92CDB7DEB7FC01D901809135035B
:102BC00090913603009701F169835B834A83FD830B
:102BD000EC83663094F491DEE0913503F091360396
:102BE00020E0823011F4A80102C040E050E0BE01B4
:102BF0006F5F7F4FCF018BD408C020E0AD01BE01D5
:102C00006F5F7F4F14D501C080E00F900F900F9041
:102C10000F900F90DF91CF911F910F910895EF9238
:102C2000FF920F931F93CF93DF93E0913903F091BD
:102C30003A038081882371F10580F681E02DE080E0
:102C4000F180C681D7818E010E5F1F4FC801D3D19D
:102C5000E989FA89CE0109958E85813031F72C8575
:102C60003D852E0D3F1DE216F30658F43B832A8363
:102C7000D987C887B8018091390390913A0383D1ED
:102C8000D4CF00E010E020E030E0A70160E0CE010A
:102C90008ADFCBCF809137039091380390933A032A
:102CA00080933903F0933803E0933703DF91CF919A
:102CB0001F910F91FF90EF900895CF93DF93CDB7C1
:102CC000DEB727970FB6F894DEBF0FBECDBFE091F9
:102CD0003903F0913A0341E08081882339F040E0E4
:102CE0000580F681E02DC080D18002C0C12CD12C9E
:102CF0004F837ADB7FDB8C01809133039091340327
:102D00004F810817190720F48ADF81E04F8101C045
:102D100080E01093340300933303811149C04111C3
:102D200032C00C151D05B8F11BDCE0913903F091A0
:102D30003A030580F681E02DE680F780C701029610
:102D40005AD1D7011E968C911E978130A1F41C9602
:102D50006D917C911D976C0D7D1D9601A801C70199
:102D60009CDE813041F400E010E020E030E0A6017C
:102D700060E0C70118DFD7015196ED91FC915297A1
:102D8000C70109951AC0E0913703F091380341E07B
:102D90008081811140E0B601601B710B8091350389
:102DA0009091360321D5DCDB811107C0ECD105C041
:102DB000D7DB03C0898187FF0EC020E040E050E0F0
:102DC000BE016F5F7F4F80913503909136035BD4D6
:102DD0008111F0CF7CCFEC80FD80F7018285938557
:102DE000892B19F0C701029606D104DBAC01809152
:102DF0003303909134034817590728F44F835E83B7
:102E00000EDF5E814F815093340340933303098179
:102E1000112707FD1095212F312F0A30110568F673
:102E2000F801EC5CFF4F41C72A813B81D7011C961A
:102E30006D917C911D97620F731FC7012EDE81304B
:102E400009F0BBCFD7015196ED91FC915297C70184
:102E50000995F7018685813009F0AFCF4485558506
:102E60008A819B81480F591F00E010E020E030E08C
:102E700060E0C70198DEA1CF6A817B81D7011D96F2
:102E80007C936E931C97640F751F9A01C70105DE32
:102E900094CFC7012ED091CF0E942C0880E090E003
:102EA000892B11F00C94000008950E942A0862DA20
:102EB0000C94AE0308950F931F93CF93DF938C016F
:102EC00093DAC801F8D6EC014BDB209711F40E948D
:102ED000AE0320914D0330914E03200F311F3093EC
:102EE0004E0320934D03CE01DF91CF911F910F919F
:102EF0000895CF93DF9300D0CDB7DEB7009759F098
:102F000089839A8371DA89819A816DD70F900F90A6
:102F1000DF91CF9125CB0F900F90DF91CF91089546
:102F2000FC010396928381832FEF3FEF3483238349
:102F3000968385839087878310820895FC0111868C
:102F400010860895CF93DF939C01FB01DC0111965D
:102F5000CD91DC911297D383C2838C819D8195831F
:102F600084838C819D81DC0113967C936E931297F0
:102F70007D836C8331872087F90180818F5F808317
:102F8000DF91CF9108950F931F93CF93DF938C011F
:102F9000FB01208131812F3F8FEF380721F4E801B9
:102FA000AF81B8850EC0D801139612968D919C9171
:102FB0001397EC01488159812417350710F0DC0183
:102FC000F4CF12968D919C91139793838283EC0199
:102FD000FD83EC83B583A4831396FC93EE93129741
:102FE00011870087F80180818F5F8083DF91CF9107
:102FF0001F910F910895CF93DF93FC01A085B185B8
:103000008281938124813581EC013D832C83C481AD
:10301000D5819B838A8311968D919C9112978E17EF
:103020009F0721F41296DC93CE9311971186108698
:103030008C9181508C93DF91CF91089531E1FC0107
:103040003083319722E220833197A3E3A083319725
:1030500060833197708331971082319760E8608385
:1030600031971082319762E06083319763E060832B
:10307000319764E06083319765E06083319766E063
:103080006083319767E06083319768E060833197B0
:1030900069E06083319760E16083319730833197D5
:1030A00032E13083319733E13083319734E130833B
:1030B000319735E13083319736E13083319737E10D
:1030C0003083319738E13083319739E1308331975C
:1030D00030E23083319731E230833197208331976A
:1030E00023E220833197408331975083319726E242
:1030F0002083319727E22083319728E2208331977C
:1031000029E22083319720E32083319721E3208334
:1031100086970895A89520EC88E190E00FB6F89482
:10312000A895809360000FBE20936000A0913103AA
:10313000B0913203CD91CDBFDD91DEBFFF91EF9114
:10314000DF91CF91BF91AF919F918F917F916F91BF
:103150005F914F913F912F911F910F91FF90EF90B1
:10316000DF90CF90BF90AF909F908F907F906F90A7
:103170005F904F903F902F901F900F900FBE0F9039
:10318000089581E008950F920FB6F8940F921F9260
:1031900011242F923F924F925F926F927F928F9263
:1031A0009F92AF92BF92CF92DF92EF92FF920F93D6
:1031B0001F932F933F934F935F936F937F938F93BF
:1031C0009F93AF93BF93CF93DF93EF93FF93A09120
:1031D0003103B09132030DB60D920EB60D925ADA4C
:1031E000A0913103B0913203CD91CDBFDD91DEBF0F
:1031F000FF91EF91DF91CF91BF91AF919F918F910F
:103200007F916F915F914F913F912F911F910F91FE
:10321000FF90EF90DF90CF90BF90AF909F908F90F6
:103220007F906F905F904F903F902F901F900F90E6
:103230000FBE0F9008950F920FB6F8940F921F9241
:1032400011242F923F924F925F926F927F928F92B2
:103250009F92AF92BF92CF92DF92EF92FF920F9325
:103260001F932F933F934F935F936F937F938F930E
:103270009F93AF93BF93CF93DF93EF93FF93A0916F
:103280003103B09132030DB60D920EB60D9213BEFE
:10329000BBD88111FFD9A0913103B0913203CD91F8
:1032A000CDBFDD91DEBFFF91EF91DF91CF91BF9157
:1032B000AF919F918F917F916F915F914F913F91CE
:1032C0002F911F910F91FF90EF90DF90CF90BF90C3
:1032D000AF909F908F907F906F905F904F903F90B6
:1032E0002F901F900F900FBE0F900895A4DF189598
:1032F0001F93CF93DF93EC01142F4C8D41110BC022
:1033000088819981892B09F03EC08A819B8156DB97
:103310001B821A8239C050E0111114C08C819D812A
:10332000FAD52C8D8C819D81820F911D9D838C837C
:103330002A813B818217930730F1888199819D838F
:103340008C8321C08E819F81E6D52C8D30E0319514
:10335000219531098E819F81820F931F9F838E83D8
:10336000688179818617970730F48A819B81820F63
:10337000931F9F838E83123031F48A8D882319F036
:103380008A8D81508A8F80E09A8D9F5F9A8FDF911E
:10339000CF911F910895FC01CB01448D442399F0F6
:1033A00050E026813781240F351F378326836281C1
:1033B00073812617370720F02081318137832683D8
:1033C00066817781A8C508950F931F93CF93DF93EC
:1033D000EC010FB6F8940F928C010F5E1F4F8E8D8B
:1033E00018165CF48989882341F0C80109DA811133
:1033F00080DA8E8D81508E8FF2CF8FEF8E8F0F906F
:103400000FBE0FB6F8940F928E01085F1F4F8D8D7F
:1034100018165CF48885882341F0C801F1D9811120
:1034200068DA8D8D81508D8FF2CF8FEF8D8F0F9059
:103430000FBEDF91CF911F910F910895CF93DF932E
:10344000EC010FB6F8940F92288139818B8D7C8D19
:10345000879FC0011124A901480F591F5B834A832C
:103460001A8E3D832C83871B9109820F931F9F83A4
:103470008E838FEF8D8F8E8F61110AC08885882390
:1034800069F0CE010896BCD9813041F47CDE06C0DB
:10349000CE01089645DDCE01419642DD0F900FBE6C
:1034A00081E0DF91CF910895EF92FF921F93CF9328
:1034B000DF931F92CDB7DEB7182F662329F0869FC2
:1034C000C0011124019602C080E090E04F9669830C
:1034D000F2DC7C016981009791F0611104C0FC016C
:1034E0009183808306C09C01215E3F4FFC013183A4
:1034F0002083F701138F648F61E0C7019FDFC7014D
:103500000F90DF91CF911F91FF90EF900895BF92A0
:10351000CF92DF92EF92FF920F931F93CF93DF939F
:1035200000D000D01F92CDB7DEB78C016B015D8358
:103530004C83B22E20E07C0188E0E80EF11C0FB62F
:10354000F8940F92F801928D838D981718F0F2E09D
:10355000BF1215C04B2DB601C801CADEF801918912
:10356000992339F0C80141964BD9813021F40BDE03
:1035700002C08111FCCF0F900FBE81E049C08C8149
:103580009D81892B19F40F900FBE41C0211103C0FA
:10359000CE01019672D90F900FBE0E94F4110FB6A2
:1035A000F8940F92F801858D8F3F09F4158EF8017C
:1035B000868D8F3F09F4168E0F900FBEBE016C5F93
:1035C0007F4FCE01019664D981111DC00FB6F894CA
:1035D0000F92F801928D838D0F900FBE98130EC03D
:1035E0006C817D81C701B1D8C801EEDE0E94B012A6
:1035F000882311F021E0A3CFC6DDFCCFC801E4DEB3
:103600000E94B012F7CFC801DFDE0E94B01280E046
:103610000F900F900F900F900F90DF91CF911F910F
:103620000F91FF90EF90DF90CF90BF9008950F9390
:103630001F93CF93DF93EC018A019A8D8B8D98179E
:1036400010F02230D1F4422FCE0152DE8E8D8F3F0A
:1036500079F48989882379F0CE014196D1D88823DD
:1036600051F00115110539F081E0F801808306C0A1
:103670008E8D8F5F8E8F81E001C080E0DF91CF91D2
:103680001F910F910895BF92CF92DF92EF92FF9218
:103690000F931F93CF93DF9300D000D01F92CDB72D
:1036A000DEB78C016B015D834C83B22E30E07C0170
:1036B00081E1E80EF11C0FB6F8940F92F801828DAB
:1036C000882361F1E680F780B601C80164DEF80165
:1036D000B11016C0828D8150828F80819181892B9B
:1036E00021F4A3D9F80193838283F801808588238C
:1036F00089F0C801089684D8813061F444DD0AC09D
:10370000F782E6828189882329F0C801419678D81A
:103710008111F4CF0F900FBE81E057C08C819D8145
:10372000892B19F40F900FBE4FC0311103C0CE0189
:103730000196A3D80F900FBE0E94F4110FB6F89413
:103740000F92F801858D8F3F09F4158EF801868D53
:103750008F3F09F4168E0F900FBEBE016C5F7F4F36
:10376000CE01019695D881112BC00FB6F8940F9217
:10377000F801828D0F900FBE81111DC0F80180816C
:103780009181892B49F40FB6F8940F92F801828148
:103790009381C1D80F900FBE6C817D81C7010E94BB
:1037A000A513C80111DE0E94B012882311F031E088
:1037B00082CFE9DCFCCFC80107DE0E94B012F7CF50
:1037C000C80102DE0E94B01280E00F900F900F90AF
:1037D0000F900F90DF91CF911F910F91FF90EF907D
:1037E000DF90CF90BF900895CF93DF93EC010FB699
:1037F000F8940F928D8D8F3F09F41D8E8E8D8F3F23
:1038000009F41E8E0F900FBE8A8D811104C0CE0167
:1038100041960E94CD13CE01DF91CF91D5CD10926C
:10382000BC0381E08093BA031092B90361E082E1A6
:103830000E94111061E083E10E941110E9EBF0E0B9
:1038400080818E7F808380818D7F808388E48093D8
:10385000B80085E48093BC000895ECEBF0E0808133
:103860008A7B808360E082E10E94111060E083E146
:103870000C941110413208F043C09091BC03911197
:10388000FCCF91E09093BC032093BA032FEF2093D9
:103890004F0310929403240F209393039093BB0340
:1038A0009091BB03880F892B8093BB038091B90350
:1038B000813061F41092B9038091BB038093BB0007
:1038C0008091BC0083FDF8CF85EC01C085EE80932C
:1038D000BC008091BC038130E1F380919403841794
:1038E00010F44091940325E933E0FB01D9018A2FBC
:1038F000821B841718F48D918193F9CF842F08953A
:1039000080E008950F93413208F04AC09091BC03C3
:103910009111FCCF92E09093BC030093BA039FEF08
:1039200090934F031092940340939303FB0165E936
:1039300073E0DB019A2F961B941718F491919D93D5
:10394000F9CF1092BB039091BB03880F892B809312
:10395000BB038091B903813061F41092B903809167
:10396000BB038093BB008091BC0083FDF8CF85EC46
:1039700001C085EE8093BC00222321F08091BC031E
:103980008230E1F380914F038F3F61F080914F03CC
:10399000803251F080914F03803341F483E007C0BF
:1039A00081E005C080E003C082E001C084E00F91A7
:1039B000089585ED8093BC008091BC0084FDFCCF10
:1039C0001092BC03089585EC8093BC001092BC0358
:1039D00008951F920F920FB60F9211242F933F93C9
:1039E0004F935F936F937F938F939F93AF93BF9307
:1039F000EF93FF938091B900887F803609F49DC0D2
:103A000070F5883209F45CC090F4803109F455C037
:103A100038F4882309F4F3C0883009F44EC0F2C0AA
:103A2000883109F44DC0803209F45EC0EBC08034A7
:103A300009F469C050F4803309F456C0883309F0A2
:103A4000E1C080934F03BFDFDDC0803509F44FC074
:103A5000883509F45DC0883409F0D4C0D2C08839F3
:103A600009F4C3C0A8F4883709F467C038F488366D
:103A700009F463C0803709F460C0C4C0883809F411
:103A8000B4C0803909F45FC0803809F0BBC05BC0A6
:103A9000803B09F482C038F4803A09F466C0883A61
:103AA00009F47BC0AFC0803C09F4A3C0883C09F492
:103AB000A0C0883B09F486C0A5C08091BB0310C09C
:103AC0009091940380919303981770F5E09194037B
:103AD00081E08E0F80939403F0E0EB56FC4F8081E1
:103AE0008093BB0085EC82C080934F038AC0E09135
:103AF000940381E08E0F809394038091BB00F0E0EB
:103B0000EB56FC4F808390919403809193036AC09D
:103B1000E091940381E08E0F809394038091BB0029
:103B2000F0E0EB56FC4F80838091BA03811169C0AD
:103B300081E08093B90384EA5DC083E08093BC0395
:103B400010925003CFCF80915003803208F04DC0C7
:103B5000E091500381E08E0F809350038091BB0071
:103B6000F0E0EF5AFC4F8083BDCF2DDF80915003F2
:103B7000803230F4E0915003F0E0EF5AFC4F1082B5
:103B80006091500370E0E091B503F091B60381E5D8
:103B900093E009951092500335C084E08093BC03F4
:103BA0001092720310927103E091B703F091B80381
:103BB000099580917103811105C081E080937103A3
:103BC00010927303E091720381E08E0F8093720371
:103BD000F0E0ED58FC4F80818093BB009091720320
:103BE00080917103981708F47DCF85E88093BC001D
:103BF00009C085EC8093BC001092BC0303C01092F6
:103C00004F03D7DEFF91EF91BF91AF919F918F91BD
:103C10007F916F915F914F913F912F910F900FBEC8
:103C20000F901F901895991B79E004C0991F961763
:103C300008F0961B881F7A95C9F780950895AA1BEE
:103C4000BB1B51E107C0AA1FBB1FA617B70710F087
:103C5000A61BB70B881F991F5A95A9F780959095B9
:103C6000BC01CD010895A1E21A2EAA1BBB1BFD01C8
:103C70000DC0AA1FBB1FEE1FFF1FA217B307E4074B
:103C8000F50720F0A21BB30BE40BF50B661F771FA3
:103C9000881F991F1A9469F7609570958095909583
:103CA0009B01AC01BD01CF010895EE0FFF1F0590F0
:103CB000F491E02D0994CF93DF938230910510F4B5
:103CC00082E090E0E0912F04F091300420E030E0B9
:103CD000A0E0B0E0309739F1408151814817590791
:103CE000B8F04817590771F482819381109729F031
:103CF00013969C938E9312972CC0909330048093CC
:103D00002F0427C02115310531F04217530718F051
:103D1000A901DB0101C0EF019A01BD01DF010280B1
:103D2000F381E02DD7CF21153105F9F0281B390B90
:103D30002430310580F48A819B816115710521F061
:103D4000FB019383828304C09093300480932F04FB
:103D5000FE01329644C0FE01E20FF31F819391935E
:103D600022503109398328833AC020912D043091A3
:103D70002E04232B41F42091020130910301309352
:103D80002E0420932D042091000130910101211572
:103D9000310541F42DB73EB7409104015091050122
:103DA000241B350BE0912D04F0912E04E217F3074C
:103DB000A0F42E1B3F0B2817390778F0AC014E5F9B
:103DC0005F4F2417350748F04E0F5F1F50932E04A6
:103DD00040932D048193919302C0E0E0F0E0CF0185
:103DE000DF91CF910895CF93DF93009709F487C0B7
:103DF000FC01329713821282C0912F04D0913004BB
:103E0000209781F420813181280F391F80912D0462
:103E100090912E048217930779F5F0932E04E09386
:103E20002D046DC0DE0120E030E0AE17BF0750F476
:103E300012964D915C9113979D014115510509F121
:103E4000DA01F3CFB383A28340815181840F951FA0
:103E50008A179B0771F48D919C911197840F951F80
:103E600002969183808312968D919C9113979383F0
:103E700082832115310529F4F0933004E0932F0457
:103E80003EC0D9011396FC93EE9312974D915D912C
:103E9000A40FB51FEA17FB0779F480819181840F85
:103EA000951F0296D90111969C938E9382819381DE
:103EB00013969C938E931297E0E0F0E08A819B81A9
:103EC000009719F0FE01EC01F9CFCE01029628818E
:103ED0003981820F931F20912D0430912E042817D1
:103EE000390769F4309729F41092300410922F04A6
:103EF00002C013821282D0932E04C0932D04DF914E
:103F0000CF910895FB01DC0102C005900D92415054
:103F10005040D8F70895FB01DC0102C001900D92DA
:103F200041505040D8F70895DC0101C06D934150D5
:103F30005040E0F70895FB01DC0101900D92002054
:103F4000E1F708950F931F93CF93DF93EC018B015B
:103F5000009731F46115710519F480E090E037C0E5
:103F60006EE070E081E090E06DD2FC010097A9F373
:103F700080E883830115110571F01387028781E8BA
:103F800083838091310490913204892B21F4F09342
:103F90003204E09331042097C9F0D187C087838130
:103FA000826083838091330490913404892B71F46F
:103FB000F0933404E09333048091350490913604F7
:103FC000892B21F4F0933604E0933504CF01DF917F
:103FD000CF911F910F910895A0E0B0E0E1EFFFE1D4
:103FE00001C3FE01359661917191AF018091330457
:103FF000909134044ED0E2E011C30F931F93CF93FE
:10400000DF93E0913304F0913404238121FF1BC03E
:10401000EC0100E010E08991609133047091340468
:10402000DB011896ED91FC911997882331F00995E1
:10403000892B89F30FEF1FEFEECF8AE00995892BCB
:1040400011F4C80102C08FEF9FEFDF91CF911F9154
:104050000F910895AEE0B0E0EFE2F0E2C1C20D8949
:104060001E8986E08C831A8309838FEF9FE79E83E6
:104070008D83AE01475E5F4F6F89788DCE010196CB
:1040800008D0EF81F885E00FF11F10822E96E4E052
:10409000C3C2ACE0B0E0EEE4F0E294C27C016B019C
:1040A0008A01FC0117821682838181FFB0C1CE0193
:1040B00001964C01F7019381F60193FD859193FFE1
:1040C00081916F01882309F49EC1853239F493FDF3
:1040D000859193FF81916F01853221F4B70190E0C2
:1040E000E1D1E8CF512C312C20E02032A0F48B32EA
:1040F00069F030F4803259F0833269F420612CC0C9
:104100008D3239F0803339F4216026C0226024607A
:1041100023C0286021C027FD27C030ED380F3A307A
:1041200078F426FF06C0FAE05F9E300D1124532E6E
:1041300013C08AE0389E300D1124332E20620CC04B
:104140008E3221F426FD5FC1206406C08C3611F446
:10415000206802C0883641F4F60193FD859193FFF3
:1041600081916F018111C1CF982F9F7D955493301C
:1041700028F40C5F1F4FFFE3F9830DC0833631F045
:10418000833771F0833509F057C021C0F801808171
:1041900089830E5F1F4F44244394512C540114C053
:1041A0003801F2E06F0E711CF801A080B18026FF8B
:1041B00003C0652D70E002C06FEF7FEFC5012C8753
:1041C00066D12C0183012C852F77222E16C0380151
:1041D000F2E06F0E711CF801A080B18026FF03C0D1
:1041E000652D70E002C06FEF7FEFC5012C8744D1D1
:1041F0002C012C852068222E830123FC19C0832DDD
:1042000090E048165906A0F4B70180E290E04AD148
:104210003A94F5CFF50127FC859127FE81915F0146
:10422000B70190E03FD131103A94F1E04F1A5108B4
:104230004114510479F7DEC0843611F0893631F526
:10424000F80127FF07C060817181828193810C5F33
:104250001F4F08C060817181882777FD8095982F56
:104260000E5F1F4F2F76B22E97FF09C09095809555
:10427000709561957F4F8F4F9F4F2068B22E2AE037
:1042800030E0A40141D1A82EA81843C0853729F4F5
:104290002F7EB22E2AE030E025C0F22FF97FBF2E0C
:1042A0008F36C1F018F4883579F0ADC0803719F039
:1042B000883721F0A8C02F2F2061B22EB4FE0DC088
:1042C0008B2D8460B82E09C024FF0AC09F2F9660F2
:1042D000B92E06C028E030E005C020E130E002C081
:1042E00020E132E0F801B7FE07C060817181828170
:1042F00093810C5F1F4F06C06081718180E090E068
:104300000E5F1F4FA40100D1A82EA818FB2DFF7728
:10431000BF2EB6FE0BC02B2D2E7FA51450F4B4FE7D
:104320000AC0B2FC08C02B2D2E7E05C07A2C2B2D86
:1043300003C07A2C01C0752C24FF0DC0FE01EA0DCC
:10434000F11D8081803311F4297E09C022FF06C04F
:104350007394739404C0822F867809F0739423FDBC
:1043600012C020FF06C05A2C731418F4530C5718AF
:10437000732C731460F4B70180E290E02C8792D024
:1043800073942C85F6CF731410F4371801C0312CB8
:1043900024FF11C0B70180E390E02C8783D02C85E7
:1043A00022FF16C021FF03C088E590E002C088E725
:1043B00090E0B7010CC0822F867851F021FD02C039
:1043C00080E201C08BE227FD8DE2B70190E06AD068
:1043D000A51430F4B70180E390E064D05A94F8CF8C
:1043E000AA94F401EA0DF11D8081B70190E05AD042
:1043F000A110F6CF332009F45DCEB70180E290E042
:1044000051D03A94F7CFF7018681978102C08FEFA0
:104410009FEF2C96E2E1F2C0F999FECF92BD81BDEB
:10442000F89A992780B50895262FF999FECF1FBADB
:1044300092BD81BD20BD0FB6F894FA9AF99A0FBECD
:10444000019608950F931F93CF93DF93869F80016A
:10445000879F100D969F100D1124C8012CDCEC01D4
:10446000009721F0A80160E070E05EDDCE01DF91F1
:10447000CF911F910F910895FC01059061507040FC
:104480000110D8F7809590958E0F9F1F0895FC011D
:104490006150704001900110D8F7809590958E0F73
:1044A0009F1F08950F931F93CF93DF93182F092F0A
:1044B000EB018B8181FD03C08FEF9FEF20C082FF56
:1044C00010C04E815F812C813D81421753077CF4DF
:1044D000E881F9819F012F5F3F4F39832883108343
:1044E00006C0E885F985812F0995892B29F72E814A
:1044F0003F812F5F3F4F3F832E83812F902FDF918E
:10450000CF911F910F910895FA01AA27283051F1F8
:10451000203181F1E8946F936E7F6E5F7F4F8F4FF4
:104520009F4FAF4FB1E03ED0B4E03CD0670F781F53
:10453000891F9A1FA11D680F791F8A1F911DA11D38
:104540006A0F711D811D911DA11D20D009F4689471
:104550003F912AE0269F11243019305D3193DEF619
:10456000CF010895462F4770405D4193B3E00FD0CF
:10457000C9F7F6CF462F4F70405D4A3318F0495DBA
:1045800031FD4052419302D0A9F7EACFB4E0A6959D
:104590009795879577956795BA95C9F700976105BF
:1045A000710508959B01AC010A2E06945795479515
:1045B00037952795BA95C9F7620F731F841F951F0A
:1045C000A01D08952F923F924F925F926F927F921B
:1045D0008F929F92AF92BF92CF92DF92EF92FF9213
:1045E0000F931F93CF93DF93CDB7DEB7CA1BDB0BBF
:1045F0000FB6F894DEBF0FBECDBF09942A88398864
:1046000048885F846E847D848C849B84AA84B9846A
:10461000C884DF80EE80FD800C811B81AA81B98176
:10462000CE0FD11D0FB6F894DEBF0FBECDBFED018A
:064630000895F894FFCF8D
:1046360000003704200001726561642072746320F3
:104646006572726F723A25640A0064687420726536
:104656006164206572726F723A25640A006B65792F
:104666005F7363616E00766965775F7469636B007B
:10467600726561645F6C757800726561645F646819
:104686007400726561645F7274630066743A2564CF
:104696000A007377697463683A25640A0072746362
:1046A6005F7772697465206572726F723A25640A63
:1046B600006B65793A25642C25640A00252E32584C
:1046C60020003C6D663E003C6F663E007274635F80
:1046D60077726974652064617461206572726F72A5
:1046E6003A2025640A007274635F726561643A2039
:1046F60077726974652072656720616464722065EB
:1047060072726F723A2025640A007274635F726572
:1047160061643A2072656164206461746120657227
:10472600726F723A2025640A0025303264256325AB
:1047360030326400253032642F2530326400252E55
:104746003032642E252E316400252E3032642E251B
:104756002E316425250024243A2530326400253084
:1047660032643A242400253032643A25303264001B
:1047760024242F2530326400253032642F2424006F
:1047860024242424003230253032640031323A3376
:10479600340073686F7720706167653A25640A0094
:1047A60070616765206E6F7420666F756E643A205F
:1047B600706167653D25642C20636F64653D2564E3
:1047C6000A006E6578742070616765206F662063E5
:1047D6006861696E206E6F7420666F756E643A202C
:1047E600636F64653D25640A0049444C4500546D79
:0647F600722053766300FF
:00000001FF
